{
  "address": "0x8FbCBAfFA5e5D62Aa046285f536Cf4b46308AA1c",
  "abi": [
    {
      "inputs": [
        {
          "internalType": "address",
          "name": "_liquidityProvider",
          "type": "address"
        },
        {
          "internalType": "address",
          "name": "_oracle",
          "type": "address"
        },
        {
          "internalType": "string",
          "name": "_question",
          "type": "string"
        },
        {
          "internalType": "uint256",
          "name": "_initialTokenValue",
          "type": "uint256"
        },
        {
          "internalType": "uint8",
          "name": "_initialYesProbability",
          "type": "uint8"
        },
        {
          "internalType": "uint8",
          "name": "_percentageToLock",
          "type": "uint8"
        }
      ],
      "stateMutability": "payable",
      "type": "constructor"
    },
    {
      "inputs": [
        {
          "internalType": "address",
          "name": "owner",
          "type": "address"
        }
      ],
      "name": "OwnableInvalidOwner",
      "type": "error"
    },
    {
      "inputs": [
        {
          "internalType": "address",
          "name": "account",
          "type": "address"
        }
      ],
      "name": "OwnableUnauthorizedAccount",
      "type": "error"
    },
    {
      "inputs": [],
      "name": "PredictionMarket__AmountMustBeGreaterThanZero",
      "type": "error"
    },
    {
      "inputs": [],
      "name": "PredictionMarket__ETHTransferFailed",
      "type": "error"
    },
    {
      "inputs": [
        {
          "internalType": "uint256",
          "name": "_tradingAmount",
          "type": "uint256"
        },
        {
          "internalType": "uint256",
          "name": "_allowance",
          "type": "uint256"
        }
      ],
      "name": "PredictionMarket__InsufficientAllowance",
      "type": "error"
    },
    {
      "inputs": [
        {
          "internalType": "uint256",
          "name": "_tradingAmount",
          "type": "uint256"
        },
        {
          "internalType": "uint256",
          "name": "_userBalance",
          "type": "uint256"
        }
      ],
      "name": "PredictionMarket__InsufficientBalance",
      "type": "error"
    },
    {
      "inputs": [],
      "name": "PredictionMarket__InsufficientLiquidity",
      "type": "error"
    },
    {
      "inputs": [],
      "name": "PredictionMarket__InsufficientTokenBalance",
      "type": "error"
    },
    {
      "inputs": [],
      "name": "PredictionMarket__InsufficientTokenReserve",
      "type": "error"
    },
    {
      "inputs": [],
      "name": "PredictionMarket__InsufficientWinningTokens",
      "type": "error"
    },
    {
      "inputs": [],
      "name": "PredictionMarket__InvalidOutcome",
      "type": "error"
    },
    {
      "inputs": [],
      "name": "PredictionMarket__InvalidPercentageToLock",
      "type": "error"
    },
    {
      "inputs": [],
      "name": "PredictionMarket__InvalidProbability",
      "type": "error"
    },
    {
      "inputs": [],
      "name": "PredictionMarket__MustProvideETHForInitialLiquidity",
      "type": "error"
    },
    {
      "inputs": [],
      "name": "PredictionMarket__MustSendExactETHAmount",
      "type": "error"
    },
    {
      "inputs": [],
      "name": "PredictionMarket__NoTokensToRedeem",
      "type": "error"
    },
    {
      "inputs": [],
      "name": "PredictionMarket__OnlyOracleCanReport",
      "type": "error"
    },
    {
      "inputs": [],
      "name": "PredictionMarket__PredictionAlreadyResolved",
      "type": "error"
    },
    {
      "inputs": [],
      "name": "PredictionMarket__PredictionNotResolved",
      "type": "error"
    },
    {
      "inputs": [],
      "name": "PredictionMarket__TokenTransferFailed",
      "type": "error"
    },
    {
      "anonymous": false,
      "inputs": [
        {
          "indexed": true,
          "internalType": "address",
          "name": "provider",
          "type": "address"
        },
        {
          "indexed": false,
          "internalType": "uint256",
          "name": "ethAmount",
          "type": "uint256"
        },
        {
          "indexed": false,
          "internalType": "uint256",
          "name": "tokensAmount",
          "type": "uint256"
        }
      ],
      "name": "LiquidityAdded",
      "type": "event"
    },
    {
      "anonymous": false,
      "inputs": [
        {
          "indexed": true,
          "internalType": "address",
          "name": "provider",
          "type": "address"
        },
        {
          "indexed": false,
          "internalType": "uint256",
          "name": "ethAmount",
          "type": "uint256"
        },
        {
          "indexed": false,
          "internalType": "uint256",
          "name": "tokensAmount",
          "type": "uint256"
        }
      ],
      "name": "LiquidityRemoved",
      "type": "event"
    },
    {
      "anonymous": false,
      "inputs": [
        {
          "indexed": true,
          "internalType": "address",
          "name": "oracle",
          "type": "address"
        },
        {
          "indexed": false,
          "internalType": "enum PredictionMarket.Outcome",
          "name": "winningOutcome",
          "type": "uint8"
        },
        {
          "indexed": false,
          "internalType": "address",
          "name": "winningToken",
          "type": "address"
        }
      ],
      "name": "MarketReported",
      "type": "event"
    },
    {
      "anonymous": false,
      "inputs": [
        {
          "indexed": true,
          "internalType": "address",
          "name": "resolver",
          "type": "address"
        },
        {
          "indexed": false,
          "internalType": "uint256",
          "name": "totalEthToSend",
          "type": "uint256"
        }
      ],
      "name": "MarketResolved",
      "type": "event"
    },
    {
      "anonymous": false,
      "inputs": [
        {
          "indexed": true,
          "internalType": "address",
          "name": "previousOwner",
          "type": "address"
        },
        {
          "indexed": true,
          "internalType": "address",
          "name": "newOwner",
          "type": "address"
        }
      ],
      "name": "OwnershipTransferred",
      "type": "event"
    },
    {
      "anonymous": false,
      "inputs": [
        {
          "indexed": true,
          "internalType": "address",
          "name": "buyer",
          "type": "address"
        },
        {
          "indexed": false,
          "internalType": "enum PredictionMarket.Outcome",
          "name": "outcome",
          "type": "uint8"
        },
        {
          "indexed": false,
          "internalType": "uint256",
          "name": "amount",
          "type": "uint256"
        },
        {
          "indexed": false,
          "internalType": "uint256",
          "name": "ethAmount",
          "type": "uint256"
        }
      ],
      "name": "TokensPurchased",
      "type": "event"
    },
    {
      "anonymous": false,
      "inputs": [
        {
          "indexed": true,
          "internalType": "address",
          "name": "seller",
          "type": "address"
        },
        {
          "indexed": false,
          "internalType": "enum PredictionMarket.Outcome",
          "name": "outcome",
          "type": "uint8"
        },
        {
          "indexed": false,
          "internalType": "uint256",
          "name": "amount",
          "type": "uint256"
        },
        {
          "indexed": false,
          "internalType": "uint256",
          "name": "ethAmount",
          "type": "uint256"
        }
      ],
      "name": "TokensSold",
      "type": "event"
    },
    {
      "anonymous": false,
      "inputs": [
        {
          "indexed": true,
          "internalType": "address",
          "name": "redeemer",
          "type": "address"
        },
        {
          "indexed": false,
          "internalType": "uint256",
          "name": "amount",
          "type": "uint256"
        },
        {
          "indexed": false,
          "internalType": "uint256",
          "name": "ethAmount",
          "type": "uint256"
        }
      ],
      "name": "WinningTokensRedeemed",
      "type": "event"
    },
    {
      "inputs": [],
      "name": "addLiquidity",
      "outputs": [],
      "stateMutability": "payable",
      "type": "function"
    },
    {
      "inputs": [
        {
          "internalType": "enum PredictionMarket.Outcome",
          "name": "_outcome",
          "type": "uint8"
        },
        {
          "internalType": "uint256",
          "name": "_amountTokenToBuy",
          "type": "uint256"
        }
      ],
      "name": "buyTokensWithETH",
      "outputs": [],
      "stateMutability": "payable",
      "type": "function"
    },
    {
      "inputs": [
        {
          "internalType": "enum PredictionMarket.Outcome",
          "name": "_outcome",
          "type": "uint8"
        },
        {
          "internalType": "uint256",
          "name": "_tradingAmount",
          "type": "uint256"
        }
      ],
      "name": "getBuyPriceInEth",
      "outputs": [
        {
          "internalType": "uint256",
          "name": "",
          "type": "uint256"
        }
      ],
      "stateMutability": "view",
      "type": "function"
    },
    {
      "inputs": [
        {
          "internalType": "enum PredictionMarket.Outcome",
          "name": "_outcome",
          "type": "uint8"
        },
        {
          "internalType": "uint256",
          "name": "_tradingAmount",
          "type": "uint256"
        }
      ],
      "name": "getSellPriceInEth",
      "outputs": [
        {
          "internalType": "uint256",
          "name": "",
          "type": "uint256"
        }
      ],
      "stateMutability": "view",
      "type": "function"
    },
    {
      "inputs": [],
      "name": "i_initialTokenValue",
      "outputs": [
        {
          "internalType": "uint256",
          "name": "",
          "type": "uint256"
        }
      ],
      "stateMutability": "view",
      "type": "function"
    },
    {
      "inputs": [],
      "name": "i_initialYesProbability",
      "outputs": [
        {
          "internalType": "uint256",
          "name": "",
          "type": "uint256"
        }
      ],
      "stateMutability": "view",
      "type": "function"
    },
    {
      "inputs": [],
      "name": "i_noToken",
      "outputs": [
        {
          "internalType": "contract PredictionMarketToken",
          "name": "",
          "type": "address"
        }
      ],
      "stateMutability": "view",
      "type": "function"
    },
    {
      "inputs": [],
      "name": "i_oracle",
      "outputs": [
        {
          "internalType": "address",
          "name": "",
          "type": "address"
        }
      ],
      "stateMutability": "view",
      "type": "function"
    },
    {
      "inputs": [],
      "name": "i_percentageLocked",
      "outputs": [
        {
          "internalType": "uint256",
          "name": "",
          "type": "uint256"
        }
      ],
      "stateMutability": "view",
      "type": "function"
    },
    {
      "inputs": [],
      "name": "i_yesToken",
      "outputs": [
        {
          "internalType": "contract PredictionMarketToken",
          "name": "",
          "type": "address"
        }
      ],
      "stateMutability": "view",
      "type": "function"
    },
    {
      "inputs": [],
      "name": "owner",
      "outputs": [
        {
          "internalType": "address",
          "name": "",
          "type": "address"
        }
      ],
      "stateMutability": "view",
      "type": "function"
    },
    {
      "inputs": [],
      "name": "prediction",
      "outputs": [
        {
          "internalType": "string",
          "name": "question",
          "type": "string"
        },
        {
          "internalType": "string",
          "name": "outcome1",
          "type": "string"
        },
        {
          "internalType": "string",
          "name": "outcome2",
          "type": "string"
        },
        {
          "internalType": "address",
          "name": "oracle",
          "type": "address"
        },
        {
          "internalType": "uint256",
          "name": "initialTokenValue",
          "type": "uint256"
        },
        {
          "internalType": "uint256",
          "name": "yesTokenReserve",
          "type": "uint256"
        },
        {
          "internalType": "uint256",
          "name": "noTokenReserve",
          "type": "uint256"
        },
        {
          "internalType": "bool",
          "name": "isReported",
          "type": "bool"
        },
        {
          "internalType": "address",
          "name": "yesToken",
          "type": "address"
        },
        {
          "internalType": "address",
          "name": "noToken",
          "type": "address"
        },
        {
          "internalType": "address",
          "name": "winningToken",
          "type": "address"
        },
        {
          "internalType": "uint256",
          "name": "ethCollateral",
          "type": "uint256"
        },
        {
          "internalType": "uint256",
          "name": "lpTradingRevenue",
          "type": "uint256"
        },
        {
          "internalType": "address",
          "name": "predictionMarketOwner",
          "type": "address"
        },
        {
          "internalType": "uint256",
          "name": "initialProbability",
          "type": "uint256"
        },
        {
          "internalType": "uint256",
          "name": "percentageLocked",
          "type": "uint256"
        }
      ],
      "stateMutability": "view",
      "type": "function"
    },
    {
      "inputs": [
        {
          "internalType": "uint256",
          "name": "_amount",
          "type": "uint256"
        }
      ],
      "name": "redeemWinningTokens",
      "outputs": [],
      "stateMutability": "nonpayable",
      "type": "function"
    },
    {
      "inputs": [
        {
          "internalType": "uint256",
          "name": "_ethToWithdraw",
          "type": "uint256"
        }
      ],
      "name": "removeLiquidity",
      "outputs": [],
      "stateMutability": "nonpayable",
      "type": "function"
    },
    {
      "inputs": [],
      "name": "renounceOwnership",
      "outputs": [],
      "stateMutability": "nonpayable",
      "type": "function"
    },
    {
      "inputs": [
        {
          "internalType": "enum PredictionMarket.Outcome",
          "name": "_winningOutcome",
          "type": "uint8"
        }
      ],
      "name": "report",
      "outputs": [],
      "stateMutability": "nonpayable",
      "type": "function"
    },
    {
      "inputs": [],
      "name": "resolveMarketAndWithdraw",
      "outputs": [
        {
          "internalType": "uint256",
          "name": "ethRedeemed",
          "type": "uint256"
        }
      ],
      "stateMutability": "nonpayable",
      "type": "function"
    },
    {
      "inputs": [],
      "name": "s_ethCollateral",
      "outputs": [
        {
          "internalType": "uint256",
          "name": "",
          "type": "uint256"
        }
      ],
      "stateMutability": "view",
      "type": "function"
    },
    {
      "inputs": [],
      "name": "s_isReported",
      "outputs": [
        {
          "internalType": "bool",
          "name": "",
          "type": "bool"
        }
      ],
      "stateMutability": "view",
      "type": "function"
    },
    {
      "inputs": [],
      "name": "s_lpTradingRevenue",
      "outputs": [
        {
          "internalType": "uint256",
          "name": "",
          "type": "uint256"
        }
      ],
      "stateMutability": "view",
      "type": "function"
    },
    {
      "inputs": [],
      "name": "s_question",
      "outputs": [
        {
          "internalType": "string",
          "name": "",
          "type": "string"
        }
      ],
      "stateMutability": "view",
      "type": "function"
    },
    {
      "inputs": [],
      "name": "s_winningToken",
      "outputs": [
        {
          "internalType": "contract PredictionMarketToken",
          "name": "",
          "type": "address"
        }
      ],
      "stateMutability": "view",
      "type": "function"
    },
    {
      "inputs": [
        {
          "internalType": "enum PredictionMarket.Outcome",
          "name": "_outcome",
          "type": "uint8"
        },
        {
          "internalType": "uint256",
          "name": "_tradingAmount",
          "type": "uint256"
        }
      ],
      "name": "sellTokensForEth",
      "outputs": [],
      "stateMutability": "nonpayable",
      "type": "function"
    },
    {
      "inputs": [
        {
          "internalType": "address",
          "name": "newOwner",
          "type": "address"
        }
      ],
      "name": "transferOwnership",
      "outputs": [],
      "stateMutability": "nonpayable",
      "type": "function"
    }
  ],
  "transactionHash": "0xd7ed7ba13872087751ce94311d2ed85c3cad28ec5a0ac08004b875f8241595a9",
  "args": [
    "0x059E31Ea8A88b62FE1603CCE134eF7c1cC557395",
    "0x059E31Ea8A88b62FE1603CCE134eF7c1cC557395",
    "Will the green car win the race?",
    "1000000000000000",
    50,
    10
  ],
  "numDeployments": 1,
  "solcInputHash": "9f028c72c991cd154dc1b593de27690a",
  "bytecode": "0x6101406040908082526200332d80380380916200001d8285620006f9565b833981019160c0918281850312620006f4576200003a816200071d565b9160206200004a8184016200071d565b8383015190946001600160401b03949091858111620006f457810190601f898184011215620006f457825199878b116200056257865193601f19929162000098838e018516890187620006f9565b8c8652878d83010111620006f45760005b8c8110620006e0575050600086620000d79c86010152606083015191620000df60a060809d8e870162000732565b950162000732565b6001600160a01b039690949087168015620006c857600080546001600160a01b03198116831782558b519291908a16907f8be0079c531659141344cd1fd0a4f28419497f9722a3daafe3b4186f6b6457e09080a33415620006b9575060ff169360648510801590620006b0575b6200069f5760ff169960648b1080159062000696575b62000685578c5284519189831162000562576001958654928784811c941680156200067a575b8a851014620006645783838695116200060a575b5089928411600114620005a5575060009262000599575b5050600019600383901b1c191690841b1783555b8060a0528160e05287895234600255670de0b6b3a7640000803402903482040362000541578115620005835704855196610d81808901898110838211176200056257898d91878e6003620025ac95878787398085528401526259657360e81b60a0840152808c840152820152605960f81b60e0820152858b8201523360608201526101009b8c910301906000f0801562000578578a5288519282840190811184821017620005625760028e8c9486948539808352820152614e6f60f01b60a08201528c89820152868d820152602760f91b60e0820152848a8201523360608201520301906000f09788156200055757610120988952620002d381620002cd858562000741565b62000741565b9283851b9380850460021490151715620005415760640360ff81116200054157620003079260ff620002cd92169062000741565b80921b918083046002149015171562000541578551855163a9059cbb60e01b808252336004830152612710938490046024830152909390918690859060449082906000908a165af1938415620005365790869392916000956200050c575b50895188519283523360048401529290046024820152929383911681600081604481015b03925af19283156200050157600093620004cb575b505015908115620004c1575b50620004b1575192611e3c94856200077086395184818161084a01528181610e6d01526111f0015260a05184818161028201528181610431015281816104af01528181610dcd01528181610f15015281816112170152611a540152518381816107a801526112a1015260e0518381816101de015261127a01525182818161024f0152818161050c0152818161089f0152818161096101528181610a1e015281816110db015281816115c60152818161199601528181611af301528181611bea0152611d3c0152518181816102f70152818161054d015281816108f401528181610c45015281816110fe0152818161143b0152818161171c01528181611c320152611cf40152f35b516318161dad60e21b8152600490fd5b90501538620003aa565b620004f0929350803d10620004f9575b620004e78183620006f9565b81019062000755565b9038806200039e565b503d620004db565b84513d6000823e3d90fd5b6200038995506200052e600091863d8811620004f957620004e78183620006f9565b955062000365565b87513d6000823e3d90fd5b634e487b7160e01b600052601160045260246000fd5b86513d6000823e3d90fd5b634e487b7160e01b600052604160045260246000fd5b89513d6000823e3d90fd5b634e487b7160e01b600052601260045260246000fd5b015190503880620001b3565b8794929192169184600052896000209260005b8b828210620005f35750508411620005d9575b505050811b018355620001c7565b015160001960f88460031b161c19169055388080620005cb565b8385015186558a97909501949384019301620005b8565b909192935087600052896000208480870160051c8201928c88106200065a575b9187968b92969594930160051c01915b8281106200064a5750506200019c565b600081558796508a91016200063a565b925081926200062a565b634e487b7160e01b600052602260045260246000fd5b93607f169362000188565b885163103731c360e21b8152600490fd5b508a1562000162565b88516324f7391760e21b8152600490fd5b5084156200014c565b63fe6ef5a160e01b8152600490fd5b8951631e4fbdf760e01b815260006004820152602490fd5b8181018801518682018901528701620000a9565b600080fd5b601f909101601f19168101906001600160401b038211908210176200056257604052565b51906001600160a01b0382168203620006f457565b519060ff82168203620006f457565b818102929181159184041417156200054157565b90816020910312620006f457518015158103620006f4579056fe608060408181526004908136101561001657600080fd5b600092833560e01c90816306a9cd5e146115845750806314926d981461146a5780631816ca6f146114265780632372c916146110675780632dc7fd761461104b5780634c5b59a514610e9c5780635cb2deb514610e5857806365e23abc14610c9957806370a38aee146109ea578063715018a61461099057806379b3d94a1461094c5780637c1bb47e14610929578063892d0f50146108125780638da5cb5b146107ea5780638dfeb952146107cb578063910ec81b1461079057806391c721e3146107685780639c8f9f231461047d578063aa7a939914610454578063ac3b90bb14610419578063df592ec3146103fa578063e8078d9414610205578063f1ce1640146101c65763f2fde38b1461012c57600080fd5b346101c25760203660031901126101c2576001600160a01b038235818116939192908490036101be5761015d611820565b83156101a8575050600054826bffffffffffffffffffffffff60a01b821617600055167f8be0079c531659141344cd1fd0a4f28419497f9722a3daafe3b4186f6b6457e0600080a380f35b51631e4fbdf760e01b8152908101849052602490fd5b8480fd5b8280fd5b838234610201578160031936011261020157602090517f00000000000000000000000000000000000000000000000000000000000000008152f35b5080fd5b5090826003193601126101c25761021a611820565b60ff815460a01c166103ed576102323460025461184c565b6002556001600160a01b039034670de0b6b3a764000081810292917f000000000000000000000000000000000000000000000000000000000000000085169181159185041417156103da579085917f0000000000000000000000000000000000000000000000000000000000000000946102ac868661189f565b91803b156101be5787516340c10f1960e01b808252308683019081526020810195909552939091869183919082908490829060400103925af19081156103d05785916103bc575b50507f000000000000000000000000000000000000000000000000000000000000000016610321868661189f565b90803b156101be57875192835230938301938452602084019190915290918391839182908490829060400103925af180156103b25761039a575b50507fac1d76749e5447b7b16f5ab61447e1bd502f3bb4807af3b28e620d1700a6ee45916103889161189f565b9180519234845260208401523392a280f35b6103a39061178c565b6103ae57833861035b565b8380fd5b85513d84823e3d90fd5b6103c59061178c565b6103ae5783386102f3565b88513d87823e3d90fd5b634e487b7160e01b865260118252602486fd5b90516205578f60e61b8152fd5b8382346102015781600319360112610201576020906002549051908152f35b838234610201578160031936011261020157602090517f00000000000000000000000000000000000000000000000000000000000000008152f35b50823461047a578060031936011261047a575060ff6020925460a01c1690519015158152f35b80fd5b5082903461020157602090816003193601126101c25783359161049e611820565b60ff855460a01c16610759576104d47f00000000000000000000000000000000000000000000000000000000000000008461189f565b90670de0b6b3a7640000918281029281840414901517156107465782516370a0823160e01b8082523088830152906001600160a01b037f00000000000000000000000000000000000000000000000000000000000000008116918481602481865afa90811561073c57899161070f575b5085116106ff577f00000000000000000000000000000000000000000000000000000000000000001691855190815230898201528381602481865afa9081156106b35788916106cd575b5084116106bd576105a1866002546118bf565b600255803b1561069b578451632770a7eb60e21b80825230828b01908152602081018790529092899183919082908490829060400103925af180156106b35790889161069f575b5050813b1561069b57845190815230818901908152602081018590529091879183919082908490829060400103925af180156106915790869161067d575b5080808087335af16106366118e8565b501561066d57825193845283015233917f96cd817c6329656790ef8fba7675405193677d39619571282f5e21f3a98cd0599190a280f35b8251632fdb18b560e01b81528690fd5b6106869061178c565b6101be578487610626565b84513d88823e3d90fd5b8680fd5b6106a89061178c565b61069b5786896105e8565b86513d8a823e3d90fd5b845163fb40cb0d60e01b81528890fd5b90508381813d83116106f8575b6106e481836117b6565b810103126106f357518961058e565b600080fd5b503d6106da565b855163fb40cb0d60e01b81528990fd5b90508481813d8311610735575b61072681836117b6565b810103126106f357518a610544565b503d61071c565b87513d8b823e3d90fd5b634e487b7160e01b855260118652602485fd5b81516205578f60e61b81528590fd5b5090346101c257826003193601126101c2575490516001600160a01b03909116815260209150f35b838234610201578160031936011261020157602090517f00000000000000000000000000000000000000000000000000000000000000008152f35b8382346102015781600319360112610201576020906003549051908152f35b838234610201578160031936011261020157905490516001600160a01b039091168152602090f35b508290346102015760203660031901126102015782359060028210156101c257835460ff8160a01c16610759576001600160a01b03907f00000000000000000000000000000000000000000000000000000000000000008216330361091957939492937f54abe5cff8746fc59eefd3a10a4e9821354cd951ffef23d64fdb7939b6e2e4199390856108f2577f0000000000000000000000000000000000000000000000000000000000000000905b6001600160a81b03191690831617600160a01b17908190558251946108e6908690611918565b1660208401523392a280f35b7f0000000000000000000000000000000000000000000000000000000000000000906108c0565b825163d101b32160e01b81528690fd5b8382346102015760209061094561093f3661176d565b90611ad4565b9051908152f35b838234610201578160031936011261020157517f00000000000000000000000000000000000000000000000000000000000000006001600160a01b03168152602090f35b833461047a578060031936011261047a576109a9611820565b600080546001600160a01b0319811682556001600160a01b03167f8be0079c531659141344cd1fd0a4f28419497f9722a3daafe3b4186f6b6457e08280a380f35b5090346101c2576109fa3661176d565b90928115610c8a5760ff835460a01c16610c7c576002841015610c695783610c43577f00000000000000000000000000000000000000000000000000000000000000005b81516370a0823160e01b815233818601526001600160a01b039190911693906020908181602481895afa908115610b97578891610c16575b50848110610bfa57508251636eb1769f60e11b815233838201523060248201528181604481895afa908115610b97578891610bcd575b50848110610bb15750610abf8487611ad4565b94610acc866003546118bf565b6003558780808089335af1610adf6118e8565b5015610ba15781889160648651809481936323b872dd60e01b835233898401523060248401528a60448401525af1918215610b97578892610b6a575b505015610b5c575090610b567fdb6c1cc84b96330a9be015b7f4d49df42a035945bf4bc3423e48a6e4259dbb7b939251928392339684611953565b0390a280f35b90516318161dad60e21b8152fd5b610b899250803d10610b90575b610b8181836117b6565b81019061193b565b3880610b1b565b503d610b77565b84513d8a823e3d90fd5b8351632fdb18b560e01b81528390fd5b90508360449351926377594e6960e01b84528301526024820152fd5b90508181813d8311610bf3575b610be481836117b6565b810103126106f3575138610aac565b503d610bda565b905083604493519263053ab6d560e21b84528301526024820152fd5b90508181813d8311610c3c575b610c2d81836117b6565b810103126106f3575138610a76565b503d610c23565b7f0000000000000000000000000000000000000000000000000000000000000000610a3e565b634e487b7160e01b855260218352602485fd5b516205578f60e61b81529050fd5b51632688641b60e21b81529050fd5b50829034610201578160031936011261020157610cb4611820565b81835460ff8160a01c1615610e485782516370a0823160e01b81523081870152602095909290916001600160a01b03168684602481845afa9384156103b2578294610e19575b5083610dbd575b610d0d6003548761184c565b9382600355813b156101c2578551632770a7eb60e21b815230858201908152602081019290925291839183919082908490829060400103925af180156103b257908291610da9575b50808085335af1610d646118e8565b5015610d9b575081519081527f316a0bcd9820c43f9ba8738fd680d536a8ac65080f56f96833f696f6dd5a12fd843392a251908152f35b8251632fdb18b560e01b8152fd5b610db29061178c565b61047a578087610d55565b9450670de0b6b3a7640000610df27f00000000000000000000000000000000000000000000000000000000000000008561188c565b0494600254808711610e11575b86610e09916118bf565b600255610d01565b955085610dff565b9093508681813d8311610e41575b610e3181836117b6565b810103126106f357519287610cfa565b503d610e27565b8251638f652d7360e01b81528590fd5b838234610201578160031936011261020157517f00000000000000000000000000000000000000000000000000000000000000006001600160a01b03168152602090f35b5082903461020157602090816003193601126101c257833591821561103b57845460ff8160a01c161561102b5782516370a0823160e01b815233878201526001600160a01b039190911691908181602481865afa908115610691579085918791610ffa575b5010610fea57670de0b6b3a7640000610f3a7f00000000000000000000000000000000000000000000000000000000000000008661188c565b0491610f48836002546118bf565b600255803b15610fe6578351632770a7eb60e21b815233818901908152602081018790529091879183919082908490829060400103925af1801561069157610fd3575b508480808085335af1610f9c6118e8565b501561066d57825193845283015233917faeb4b315a6442ab135da41b9b7b337c712b68e5a6051ef6299965f3e58dbebbb9190a280f35b610fdf9095919561178c565b9386610f8b565b8580fd5b82516328f48e2f60e01b81528690fd5b809250838092503d8311611024575b61101381836117b6565b81010312610fe65784905188610f01565b503d611009565b8251638f652d7360e01b81528690fd5b8151632688641b60e21b81528590fd5b838234610201576020906109456110613661176d565b90611970565b50913461047a578060031936011261047a578251908092600180549485821c9180871696871561141c575b60209788851081146114095784885287939291899082156113e9575050600114611390575b506110c4925003846117b6565b6002546003549160018060a01b03908185541694827f000000000000000000000000000000000000000000000000000000000000000016837f000000000000000000000000000000000000000000000000000000000000000016918a51936306fdde0360e01b9b8c865282868381875afa95861561136a578396611374575b5080519c8d52828d8381885afa91821561136a578c9d849d9c9d93611346575b5081516370a0823160e01b8082523083830152909c8d602481895afa9c8d1561133c57859d611308575b508e83519182523083830152816024818a5afa9485156112fd578f81966112ca575b505050549581519d8e809e61020080835282016111cb916117fb565b918183039101526111db916117fb565b908c8203908d01526111ec916117fb565b98857f00000000000000000000000000000000000000000000000000000000000000001660608c01527f000000000000000000000000000000000000000000000000000000000000000060808c015260a08b015260c08a01528260a01c60ff16151560e08a0152610100890152610120880152166101408601526101608501526101808401526101a08301527f00000000000000000000000000000000000000000000000000000000000000006101c08301527f00000000000000000000000000000000000000000000000000000000000000006101e08301520390f35b909180939650813d83116112f6575b6112e381836117b6565b8101031261047a5750519238808f6111af565b503d6112d9565b8351903d90823e3d90fd5b9e8f819f9e50813d8311611335575b61132181836117b6565b810103126101be578d9e9d9c9d519c61118d565b503d611317565b83513d87823e3d90fd5b6113639193503d8086833e61135b81836117b6565b810190611da4565b9138611163565b81513d85823e3d90fd5b6113899196503d8085833e61135b81836117b6565b9438611143565b80865287915085907fb10e2d527612073b26eecdfd717e6a320cf44b4afac2b0732d9fcbe2b7fa0cf65b8583106113d15750506110c49350820101386110b7565b8054838a0185015288945089939092019181016113ba565b60ff1916858201526110c495151560051b85010192503891506110b79050565b634e487b7160e01b875260228652602487fd5b92607f1692611092565b838234610201578160031936011261020157517f00000000000000000000000000000000000000000000000000000000000000006001600160a01b03168152602090f35b50823461047a578060031936011261047a578151918160019283549384811c9181861695861561157a575b6020968785108114611567578899509688969785829a5291826000146115405750506001146114e5575b5050506114e192916114d29103856117b6565b519282849384528301906117fb565b0390f35b91908693508083527fb10e2d527612073b26eecdfd717e6a320cf44b4afac2b0732d9fcbe2b7fa0cf65b82841061152857505050820101816114d26114e16114bf565b8054848a01860152889550879490930192810161150f565b60ff19168782015293151560051b860190930193508492506114d291506114e190506114bf565b634e487b7160e01b835260228a52602483fd5b92607f1692611495565b9190506115903661176d565b9390928415611761575060ff815460a01c166103ed576115b08484611970565b3403611753576002831015611740578261171a577f00000000000000000000000000000000000000000000000000000000000000005b82516370a0823160e01b815230838201526020916001600160a01b0316908281602481855afa9081156117105788916116df575b5086116116cf5761162d3460035461184c565b600355835163a9059cbb60e01b815233848201908152602081018890529091839183919082908b90829060400103925af19182156116c55787926116a8575b505015610b5c57507f78408fb808ae2018d121a91ae47221eb4b85530dc14522ce2ddcb93083e269d691610b5691519182913395349184611953565b6116be9250803d10610b9057610b8181836117b6565b388061166c565b84513d89823e3d90fd5b835163fb40cb0d60e01b81528390fd5b90508281813d8311611709575b6116f681836117b6565b8101031261170557513861161a565b8780fd5b503d6116ec565b85513d8a823e3d90fd5b7f00000000000000000000000000000000000000000000000000000000000000006115e6565b634e487b7160e01b855260219052602484fd5b90516309c860a960e31b8152fd5b632688641b60e21b8152fd5b60409060031901126106f35760043560028110156106f3579060243590565b67ffffffffffffffff81116117a057604052565b634e487b7160e01b600052604160045260246000fd5b90601f8019910116810190811067ffffffffffffffff8211176117a057604052565b60005b8381106117eb5750506000910152565b81810151838201526020016117db565b90602091611814815180928185528580860191016117d8565b601f01601f1916010190565b6000546001600160a01b0316330361183457565b60405163118cdaa760e01b8152336004820152602490fd5b9190820180921161185957565b634e487b7160e01b600052601160045260246000fd5b90670de0b6b3a76400009182810292818404149015171561185957565b8181029291811591840414171561185957565b81156118a9570490565b634e487b7160e01b600052601260045260246000fd5b9190820391821161185957565b67ffffffffffffffff81116117a057601f01601f191660200190565b3d15611913573d906118f9826118cc565b9161190760405193846117b6565b82523d6000602084013e565b606090565b9060028210156119255752565b634e487b7160e01b600052602160045260246000fd5b908160209103126106f3575180151581036106f35790565b604091949392611967826060810197611918565b60208201520152565b61197990611bb5565b828210611ac2576040516318160ddd60e01b8152906020826004817f00000000000000000000000000000000000000000000000000000000000000006001600160a01b03165afa918215611ab657600092611a81575b50611a4f83611a49611a2c611a2c611a4389611a3d89611a3783611a316ec097ce7bc90715b34b9f10000000009f9d9c611a7d9f611a1e611a789f611a2492611a17916118bf565b92876118bf565b8261184c565b998a9161186f565b61189f565b996118bf565b906118bf565b9361184c565b9161186f565b9061184c565b60011c7f000000000000000000000000000000000000000000000000000000000000000061188c565b61188c565b0490565b90916020823d8211611aae575b81611a9b602093836117b6565b8101031261047a57505190611a4f6119cf565b3d9150611a8e565b6040513d6000823e3d90fd5b60405163224e54d760e01b8152600490fd5b611add90611bb5565b6040516318160ddd60e01b8152906020826004817f00000000000000000000000000000000000000000000000000000000000000006001600160a01b03165afa918215611ab657600092611b80575b50611a4f83611a49611a2c611a2c611a4389611b7a89611a3783611b746ec097ce7bc90715b34b9f10000000009f9d9c611a7d9f611a1e611a789f611a2492611a17916118bf565b9961184c565b936118bf565b90916020823d8211611bad575b81611b9a602093836117b6565b8101031261047a57505190611a4f611b2c565b3d9150611b8d565b600281101561192557611ccc576040516370a0823160e01b808252306004830152602092916001600160a01b039084816024817f000000000000000000000000000000000000000000000000000000000000000086165afa928315611ab6578591600094611c9a575b5060246040518094819382523060048301527f0000000000000000000000000000000000000000000000000000000000000000165afa938415611ab657600094611c69575b50509190565b8181959293953d8311611c93575b611c8181836117b6565b8101031261047a575051913880611c63565b503d611c77565b9182819592953d8311611cc5575b611cb281836117b6565b8101031261047a57508490519238611c1e565b503d611ca8565b6040516370a0823160e01b808252306004830152602092916001600160a01b039084816024817f000000000000000000000000000000000000000000000000000000000000000086165afa928315611ab6578591600094611d72575b5060246040518094819382523060048301527f0000000000000000000000000000000000000000000000000000000000000000165afa938415611ab657600094611c695750509190565b9182819592953d8311611d9d575b611d8a81836117b6565b8101031261047a57508490519238611d28565b503d611d80565b6020818303126106f35780519067ffffffffffffffff82116106f3570181601f820112156106f3578051611dd7816118cc565b92611de560405194856117b6565b818452602082840101116106f357611e0391602080850191016117d8565b9056fea264697066735822122001e4d9bdd97e4cfd005f1406200e47be095b6fdb5006cdba768521453303091a64736f6c6343000814003360406080815234620003d15762000d81803803806200001e81620003d6565b9283398101608082820312620003d15781516001600160401b0390818111620003d157826200004f918501620003fc565b906020928385015190828211620003d1576200006d918601620003fc565b916060868601519501519160018060a01b038316809303620003d1578151818111620002d1576003908154906001948583811c93168015620003c6575b89841014620003b0578190601f938481116200035a575b508990848311600114620002f357600092620002e7575b505060001982851b1c191690851b1782555b8551928311620002d15760049586548581811c91168015620002c6575b89821014620002b15782811162000266575b5087918411600114620001fb57938394918492600095620001ef575b50501b92600019911b1c19161782555b60018060a01b03193381600554161760055560065416176006553315620001d85760025490838201809211620001c357506000917fddf252ad1be2c89b69c2b068fc378daa952ba7f163c4a11628f55a4df523b3ef9160025533835282815284832084815401905584519384523393a35161091290816200046f8239f35b601190634e487b7160e01b6000525260246000fd5b602490600085519163ec442f0560e01b8352820152fd5b01519350388062000135565b9190601f198416928760005284896000209460005b8b898383106200024e575050501062000233575b50505050811b01825562000145565b01519060f884600019921b161c191690553880808062000224565b86860151895590970196948501948893500162000210565b87600052886000208380870160051c8201928b8810620002a7575b0160051c019086905b8281106200029a57505062000119565b600081550186906200028a565b9250819262000281565b602288634e487b7160e01b6000525260246000fd5b90607f169062000107565b634e487b7160e01b600052604160045260246000fd5b015190503880620000d8565b90879350601f19831691866000528b6000209260005b8d8282106200034357505084116200032a575b505050811b018255620000ea565b015160001983871b60f8161c191690553880806200031c565b8385015186558b9790950194938401930162000309565b90915084600052896000208480850160051c8201928c8610620003a6575b918991869594930160051c01915b82811062000396575050620000c1565b6000815585945089910162000386565b9250819262000378565b634e487b7160e01b600052602260045260246000fd5b92607f1692620000aa565b600080fd5b6040519190601f01601f191682016001600160401b03811183821017620002d157604052565b919080601f84011215620003d15782516001600160401b038111620002d15760209062000432601f8201601f19168301620003d6565b92818452828287010111620003d15760005b8181106200045a57508260009394955001015290565b85810183015184820184015282016200044456fe608060408181526004918236101561001657600080fd5b600092833560e01c91826306fdde03146106ac57508163095ea7b31461060257816318160ddd146105e357816323b872dd146104d0578163313ce567146104b457816340c10f19146103ec5781635b8bec55146103c357816370a082311461038c57816395d89b411461026d5781639dc29fac1461017d578163a9059cbb1461012757508063dd62ed3e146100df5763def114b6146100b457600080fd5b346100db57816003193601126100db5760055490516001600160a01b039091168152602090f35b5080fd5b50346100db57806003193601126100db57806020926100fc6107cd565b6101046107e8565b6001600160a01b0391821683526001865283832091168252845220549051908152f35b82843461017a578160031936011261017a57506101426107cd565b9160018060a01b0360065416331461016c575061016560209260243590336107fe565b5160018152f35b905163ec0511b360e01b8152fd5b80fd5b839150346100db57826003193601126100db576101986107cd565b6005549091602435916001600160a01b03908116330361025e578316928315610247578385528460205285852054918383106102135750508184957fddf252ad1be2c89b69c2b068fc378daa952ba7f163c4a11628f55a4df523b3ef936020938688528785520381872055816002540360025551908152a380f35b865163391434e360e21b81526001600160a01b03909216908201908152602081018390526040810184905281906060010390fd5b8551634b637e8f60e11b8152808301869052602490fd5b508451631e29ea2960e11b8152fd5b8383346100db57816003193601126100db57805190828454600181811c90808316928315610382575b602093848410811461036f5783885290811561035357506001146102fe575b505050829003601f01601f191682019267ffffffffffffffff8411838510176102eb57508291826102e7925282610784565b0390f35b634e487b7160e01b815260418552602490fd5b8787529192508591837f8a35acfbc15ff81a39ae7d344fd709f28e8600b4aa8c65c6b64bfe7fe36bd19b5b83851061033f57505050508301018580806102b5565b805488860183015293019284908201610329565b60ff1916878501525050151560051b84010190508580806102b5565b634e487b7160e01b895260228a52602489fd5b91607f1691610296565b5050346100db5760203660031901126100db5760209181906001600160a01b036103b46107cd565b16815280845220549051908152f35b5050346100db57816003193601126100db5760065490516001600160a01b039091168152602090f35b919050346104b057806003193601126104b0576104076107cd565b60055460243592916001600160a01b0391821633036104a0571692831561048b5760025490838201809211610478575084927fddf252ad1be2c89b69c2b068fc378daa952ba7f163c4a11628f55a4df523b3ef9260209260025585855284835280852082815401905551908152a380f35b634e487b7160e01b865260119052602485fd5b84602492519163ec442f0560e01b8352820152fd5b825163294c9fd360e01b81528590fd5b8280fd5b5050346100db57816003193601126100db576020905160128152f35b9050823461017a57606036600319011261017a576104ec6107cd565b6104f46107e8565b60065460443594919391906001600160a01b03848116911681146105d457808352600160205286832033845260205286832054916000198303610540575b6020886101658989896107fe565b8683106105a857811561059157331561057a5750825260016020908152868320338452815291869020908590039055829061016587610532565b8751634a1406b160e11b8152908101849052602490fd5b875163e602df0560e01b8152908101849052602490fd5b8751637dc7a0d960e11b8152339181019182526020820193909352604081018790528291506060010390fd5b50855163ec0511b360e01b8152fd5b5050346100db57816003193601126100db576020906002549051908152f35b9050346104b057816003193601126104b05761061c6107cd565b602435903315610695576001600160a01b031691821561067e57508083602095338152600187528181208582528752205582519081527f8c5be1e5ebec7d5bd14f71427d1e84f3dd0314c0f7b2291e5b200ac8c7c3b925843392a35160018152f35b8351634a1406b160e11b8152908101859052602490fd5b835163e602df0560e01b8152808401869052602490fd5b849084346104b057826003193601126104b05782600354600181811c9080831692831561077a575b602093848410811461036f57838852908115610353575060011461072457505050829003601f01601f191682019267ffffffffffffffff8411838510176102eb57508291826102e7925282610784565b600387529192508591837fc2575a0e9e593c00f959f8c92f12db2869c3395a3b0502d05e2516446f71f85b5b83851061076657505050508301018580806102b5565b805488860183015293019284908201610750565b91607f16916106d4565b6020808252825181830181905290939260005b8281106107b957505060409293506000838284010152601f8019910116010190565b818101860151848201604001528501610797565b600435906001600160a01b03821682036107e357565b600080fd5b602435906001600160a01b03821682036107e357565b916001600160a01b038084169283156108c357169283156108aa5760009083825281602052604082205490838210610878575091604082827fddf252ad1be2c89b69c2b068fc378daa952ba7f163c4a11628f55a4df523b3ef958760209652828652038282205586815220818154019055604051908152a3565b60405163391434e360e21b81526001600160a01b03919091166004820152602481019190915260448101839052606490fd5b60405163ec442f0560e01b815260006004820152602490fd5b604051634b637e8f60e11b815260006004820152602490fdfea26469706673582212207a9c51d192bd547aa78de65198488d7f38c03d060a2fac9845ecb6fc2fc525be64736f6c63430008140033",
  "devdoc": {
    "errors": {
      "OwnableInvalidOwner(address)": [
        {
          "details": "The owner is not a valid owner account. (eg. `address(0)`)"
        }
      ],
      "OwnableUnauthorizedAccount(address)": [
        {
          "details": "The caller account is not authorized to perform an operation."
        }
      ]
    },
    "kind": "dev",
    "methods": {
      "buyTokensWithETH(uint8,uint256)": {
        "params": {
          "_amountTokenToBuy": "Amount of tokens to purchase",
          "_outcome": "The possible outcome (YES or NO) to buy tokens for"
        }
      },
      "getBuyPriceInEth(uint8,uint256)": {
        "params": {
          "_outcome": "The possible outcome (YES or NO) to buy tokens for",
          "_tradingAmount": "The amount of tokens to buy"
        },
        "returns": {
          "_0": "The total ETH price"
        }
      },
      "getSellPriceInEth(uint8,uint256)": {
        "params": {
          "_outcome": "The possible outcome (YES or NO) to sell tokens for",
          "_tradingAmount": "The amount of tokens to sell"
        },
        "returns": {
          "_0": "The total ETH price"
        }
      },
      "owner()": {
        "details": "Returns the address of the current owner."
      },
      "redeemWinningTokens(uint256)": {
        "params": {
          "_amount": "The amount of winning tokens to redeem"
        }
      },
      "removeLiquidity(uint256)": {
        "params": {
          "_ethToWithdraw": "Amount of ETH to withdraw from liquidity pool"
        }
      },
      "renounceOwnership()": {
        "details": "Leaves the contract without owner. It will not be possible to call `onlyOwner` functions. Can only be called by the current owner. NOTE: Renouncing ownership will leave the contract without an owner, thereby disabling any functionality that is only available to the owner."
      },
      "report(uint8)": {
        "params": {
          "_winningOutcome": "The winning outcome (YES or NO)"
        }
      },
      "resolveMarketAndWithdraw()": {
        "details": "Only callable by the owner",
        "returns": {
          "ethRedeemed": "The amount of ETH redeemed"
        }
      },
      "sellTokensForEth(uint8,uint256)": {
        "params": {
          "_outcome": "The possible outcome (YES or NO) to sell tokens for",
          "_tradingAmount": "The amount of tokens to sell"
        }
      },
      "transferOwnership(address)": {
        "details": "Transfers ownership of the contract to a new account (`newOwner`). Can only be called by the current owner."
      }
    },
    "version": 1
  },
  "userdoc": {
    "errors": {
      "PredictionMarket__MustProvideETHForInitialLiquidity()": [
        {
          "notice": "Errors //////"
        }
      ]
    },
    "events": {
      "TokensPurchased(address,uint8,uint256,uint256)": {
        "notice": "Events //////"
      }
    },
    "kind": "user",
    "methods": {
      "addLiquidity()": {
        "notice": "Functions ///"
      },
      "buyTokensWithETH(uint8,uint256)": {
        "notice": "Buy prediction outcome tokens with ETH, need to call priceInETH function first to get right amount of tokens to buy"
      },
      "getBuyPriceInEth(uint8,uint256)": {
        "notice": "Calculate the total ETH price for buying tokens"
      },
      "getSellPriceInEth(uint8,uint256)": {
        "notice": "Calculate the total ETH price for selling tokens"
      },
      "prediction()": {
        "notice": "Getter Functions ///"
      },
      "redeemWinningTokens(uint256)": {
        "notice": "Redeem winning tokens for ETH after prediction is resolved, winning tokens are burned and user receives ETH"
      },
      "removeLiquidity(uint256)": {
        "notice": "Remove liquidity from the prediction market and burn corresponding tokens, if you remove liquidity before prediction ends you got no share of lpReserve"
      },
      "report(uint8)": {
        "notice": "Report the winning outcome for the prediction"
      },
      "resolveMarketAndWithdraw()": {
        "notice": "Owner of contract can redeem winning tokens held by the contract after prediction is resolved and get ETH from the contract including LP revenue and collateral back"
      },
      "sellTokensForEth(uint8,uint256)": {
        "notice": "Sell prediction outcome tokens for ETH, need to call priceInETH function first to get right amount of tokens to buy"
      }
    },
    "version": 1
  },
  "storageLayout": {
    "storage": [
      {
        "astId": 8,
        "contract": "contracts/PredictionMarket.sol:PredictionMarket",
        "label": "_owner",
        "offset": 0,
        "slot": "0",
        "type": "t_address"
      },
      {
        "astId": 1009,
        "contract": "contracts/PredictionMarket.sol:PredictionMarket",
        "label": "s_question",
        "offset": 0,
        "slot": "1",
        "type": "t_string_storage"
      },
      {
        "astId": 1011,
        "contract": "contracts/PredictionMarket.sol:PredictionMarket",
        "label": "s_ethCollateral",
        "offset": 0,
        "slot": "2",
        "type": "t_uint256"
      },
      {
        "astId": 1013,
        "contract": "contracts/PredictionMarket.sol:PredictionMarket",
        "label": "s_lpTradingRevenue",
        "offset": 0,
        "slot": "3",
        "type": "t_uint256"
      },
      {
        "astId": 1016,
        "contract": "contracts/PredictionMarket.sol:PredictionMarket",
        "label": "s_winningToken",
        "offset": 0,
        "slot": "4",
        "type": "t_contract(PredictionMarketToken)2357"
      },
      {
        "astId": 1018,
        "contract": "contracts/PredictionMarket.sol:PredictionMarket",
        "label": "s_isReported",
        "offset": 20,
        "slot": "4",
        "type": "t_bool"
      }
    ],
    "types": {
      "t_address": {
        "encoding": "inplace",
        "label": "address",
        "numberOfBytes": "20"
      },
      "t_bool": {
        "encoding": "inplace",
        "label": "bool",
        "numberOfBytes": "1"
      },
      "t_contract(PredictionMarketToken)2357": {
        "encoding": "inplace",
        "label": "contract PredictionMarketToken",
        "numberOfBytes": "20"
      },
      "t_string_storage": {
        "encoding": "bytes",
        "label": "string",
        "numberOfBytes": "32"
      },
      "t_uint256": {
        "encoding": "inplace",
        "label": "uint256",
        "numberOfBytes": "32"
      }
    }
  }
}